{
  "_format": "hh-sol-artifact-1",
  "contractName": "AVAXGods",
  "sourceName": "contracts/AvaxGods.sol",
  "abi": [
    {
      "inputs": [
        {
          "internalType": "string",
          "name": "_metadataURI",
          "type": "string"
        }
      ],
      "stateMutability": "nonpayable",
      "type": "constructor"
    },
    {
      "anonymous": false,
      "inputs": [
        {
          "indexed": true,
          "internalType": "address",
          "name": "account",
          "type": "address"
        },
        {
          "indexed": true,
          "internalType": "address",
          "name": "operator",
          "type": "address"
        },
        {
          "indexed": false,
          "internalType": "bool",
          "name": "approved",
          "type": "bool"
        }
      ],
      "name": "ApprovalForAll",
      "type": "event"
    },
    {
      "anonymous": false,
      "inputs": [
        {
          "indexed": false,
          "internalType": "string",
          "name": "battleName",
          "type": "string"
        },
        {
          "indexed": true,
          "internalType": "address",
          "name": "winner",
          "type": "address"
        }
      ],
      "name": "BattleEnded",
      "type": "event"
    },
    {
      "anonymous": false,
      "inputs": [
        {
          "indexed": true,
          "internalType": "string",
          "name": "battleName",
          "type": "string"
        },
        {
          "indexed": true,
          "internalType": "bool",
          "name": "isFirstMove",
          "type": "bool"
        }
      ],
      "name": "BattleMove",
      "type": "event"
    },
    {
      "anonymous": false,
      "inputs": [
        {
          "indexed": false,
          "internalType": "string",
          "name": "battleName",
          "type": "string"
        },
        {
          "indexed": true,
          "internalType": "address",
          "name": "player1",
          "type": "address"
        },
        {
          "indexed": true,
          "internalType": "address",
          "name": "player2",
          "type": "address"
        }
      ],
      "name": "NewBattle",
      "type": "event"
    },
    {
      "anonymous": false,
      "inputs": [
        {
          "indexed": true,
          "internalType": "address",
          "name": "owner",
          "type": "address"
        },
        {
          "indexed": false,
          "internalType": "uint256",
          "name": "id",
          "type": "uint256"
        },
        {
          "indexed": false,
          "internalType": "uint256",
          "name": "attackStrength",
          "type": "uint256"
        },
        {
          "indexed": false,
          "internalType": "uint256",
          "name": "defenseStrength",
          "type": "uint256"
        }
      ],
      "name": "NewGameToken",
      "type": "event"
    },
    {
      "anonymous": false,
      "inputs": [
        {
          "indexed": true,
          "internalType": "address",
          "name": "owner",
          "type": "address"
        },
        {
          "indexed": false,
          "internalType": "string",
          "name": "name",
          "type": "string"
        }
      ],
      "name": "NewPlayer",
      "type": "event"
    },
    {
      "anonymous": false,
      "inputs": [
        {
          "indexed": true,
          "internalType": "address",
          "name": "previousOwner",
          "type": "address"
        },
        {
          "indexed": true,
          "internalType": "address",
          "name": "newOwner",
          "type": "address"
        }
      ],
      "name": "OwnershipTransferred",
      "type": "event"
    },
    {
      "anonymous": false,
      "inputs": [
        {
          "indexed": false,
          "internalType": "address[2]",
          "name": "damagedPlayers",
          "type": "address[2]"
        }
      ],
      "name": "RoundEnded",
      "type": "event"
    },
    {
      "anonymous": false,
      "inputs": [
        {
          "indexed": true,
          "internalType": "address",
          "name": "operator",
          "type": "address"
        },
        {
          "indexed": true,
          "internalType": "address",
          "name": "from",
          "type": "address"
        },
        {
          "indexed": true,
          "internalType": "address",
          "name": "to",
          "type": "address"
        },
        {
          "indexed": false,
          "internalType": "uint256[]",
          "name": "ids",
          "type": "uint256[]"
        },
        {
          "indexed": false,
          "internalType": "uint256[]",
          "name": "values",
          "type": "uint256[]"
        }
      ],
      "name": "TransferBatch",
      "type": "event"
    },
    {
      "anonymous": false,
      "inputs": [
        {
          "indexed": true,
          "internalType": "address",
          "name": "operator",
          "type": "address"
        },
        {
          "indexed": true,
          "internalType": "address",
          "name": "from",
          "type": "address"
        },
        {
          "indexed": true,
          "internalType": "address",
          "name": "to",
          "type": "address"
        },
        {
          "indexed": false,
          "internalType": "uint256",
          "name": "id",
          "type": "uint256"
        },
        {
          "indexed": false,
          "internalType": "uint256",
          "name": "value",
          "type": "uint256"
        }
      ],
      "name": "TransferSingle",
      "type": "event"
    },
    {
      "anonymous": false,
      "inputs": [
        {
          "indexed": false,
          "internalType": "string",
          "name": "value",
          "type": "string"
        },
        {
          "indexed": true,
          "internalType": "uint256",
          "name": "id",
          "type": "uint256"
        }
      ],
      "name": "URI",
      "type": "event"
    },
    {
      "inputs": [],
      "name": "CELESTION",
      "outputs": [
        {
          "internalType": "uint256",
          "name": "",
          "type": "uint256"
        }
      ],
      "stateMutability": "view",
      "type": "function"
    },
    {
      "inputs": [],
      "name": "DEVIL",
      "outputs": [
        {
          "internalType": "uint256",
          "name": "",
          "type": "uint256"
        }
      ],
      "stateMutability": "view",
      "type": "function"
    },
    {
      "inputs": [],
      "name": "FIREBIRD",
      "outputs": [
        {
          "internalType": "uint256",
          "name": "",
          "type": "uint256"
        }
      ],
      "stateMutability": "view",
      "type": "function"
    },
    {
      "inputs": [],
      "name": "GRIFFIN",
      "outputs": [
        {
          "internalType": "uint256",
          "name": "",
          "type": "uint256"
        }
      ],
      "stateMutability": "view",
      "type": "function"
    },
    {
      "inputs": [],
      "name": "KAMO",
      "outputs": [
        {
          "internalType": "uint256",
          "name": "",
          "type": "uint256"
        }
      ],
      "stateMutability": "view",
      "type": "function"
    },
    {
      "inputs": [],
      "name": "KUKULKAN",
      "outputs": [
        {
          "internalType": "uint256",
          "name": "",
          "type": "uint256"
        }
      ],
      "stateMutability": "view",
      "type": "function"
    },
    {
      "inputs": [],
      "name": "MAX_ATTACK_DEFEND_STRENGTH",
      "outputs": [
        {
          "internalType": "uint256",
          "name": "",
          "type": "uint256"
        }
      ],
      "stateMutability": "view",
      "type": "function"
    },
    {
      "inputs": [
        {
          "internalType": "uint8",
          "name": "_choice",
          "type": "uint8"
        },
        {
          "internalType": "string",
          "name": "_battleName",
          "type": "string"
        }
      ],
      "name": "attackOrDefendChoice",
      "outputs": [],
      "stateMutability": "nonpayable",
      "type": "function"
    },
    {
      "inputs": [
        {
          "internalType": "address",
          "name": "account",
          "type": "address"
        },
        {
          "internalType": "uint256",
          "name": "id",
          "type": "uint256"
        }
      ],
      "name": "balanceOf",
      "outputs": [
        {
          "internalType": "uint256",
          "name": "",
          "type": "uint256"
        }
      ],
      "stateMutability": "view",
      "type": "function"
    },
    {
      "inputs": [
        {
          "internalType": "address[]",
          "name": "accounts",
          "type": "address[]"
        },
        {
          "internalType": "uint256[]",
          "name": "ids",
          "type": "uint256[]"
        }
      ],
      "name": "balanceOfBatch",
      "outputs": [
        {
          "internalType": "uint256[]",
          "name": "",
          "type": "uint256[]"
        }
      ],
      "stateMutability": "view",
      "type": "function"
    },
    {
      "inputs": [],
      "name": "baseURI",
      "outputs": [
        {
          "internalType": "string",
          "name": "",
          "type": "string"
        }
      ],
      "stateMutability": "view",
      "type": "function"
    },
    {
      "inputs": [
        {
          "internalType": "string",
          "name": "",
          "type": "string"
        }
      ],
      "name": "battleInfo",
      "outputs": [
        {
          "internalType": "uint256",
          "name": "",
          "type": "uint256"
        }
      ],
      "stateMutability": "view",
      "type": "function"
    },
    {
      "inputs": [
        {
          "internalType": "uint256",
          "name": "",
          "type": "uint256"
        }
      ],
      "name": "battles",
      "outputs": [
        {
          "internalType": "enum AVAXGods.BattleStatus",
          "name": "battleStatus",
          "type": "uint8"
        },
        {
          "internalType": "bytes32",
          "name": "battleHash",
          "type": "bytes32"
        },
        {
          "internalType": "string",
          "name": "name",
          "type": "string"
        },
        {
          "internalType": "address",
          "name": "winner",
          "type": "address"
        }
      ],
      "stateMutability": "view",
      "type": "function"
    },
    {
      "inputs": [
        {
          "internalType": "string",
          "name": "_name",
          "type": "string"
        }
      ],
      "name": "createBattle",
      "outputs": [
        {
          "components": [
            {
              "internalType": "enum AVAXGods.BattleStatus",
              "name": "battleStatus",
              "type": "uint8"
            },
            {
              "internalType": "bytes32",
              "name": "battleHash",
              "type": "bytes32"
            },
            {
              "internalType": "string",
              "name": "name",
              "type": "string"
            },
            {
              "internalType": "address[2]",
              "name": "players",
              "type": "address[2]"
            },
            {
              "internalType": "uint8[2]",
              "name": "moves",
              "type": "uint8[2]"
            },
            {
              "internalType": "address",
              "name": "winner",
              "type": "address"
            }
          ],
          "internalType": "struct AVAXGods.Battle",
          "name": "",
          "type": "tuple"
        }
      ],
      "stateMutability": "nonpayable",
      "type": "function"
    },
    {
      "inputs": [
        {
          "internalType": "string",
          "name": "_name",
          "type": "string"
        }
      ],
      "name": "createRandomGameToken",
      "outputs": [],
      "stateMutability": "nonpayable",
      "type": "function"
    },
    {
      "inputs": [],
      "name": "drinkPotion",
      "outputs": [],
      "stateMutability": "nonpayable",
      "type": "function"
    },
    {
      "inputs": [
        {
          "internalType": "uint256",
          "name": "id",
          "type": "uint256"
        }
      ],
      "name": "exists",
      "outputs": [
        {
          "internalType": "bool",
          "name": "",
          "type": "bool"
        }
      ],
      "stateMutability": "view",
      "type": "function"
    },
    {
      "inputs": [
        {
          "internalType": "uint256",
          "name": "",
          "type": "uint256"
        }
      ],
      "name": "gameTokens",
      "outputs": [
        {
          "internalType": "string",
          "name": "name",
          "type": "string"
        },
        {
          "internalType": "uint256",
          "name": "id",
          "type": "uint256"
        },
        {
          "internalType": "uint256",
          "name": "attackStrength",
          "type": "uint256"
        },
        {
          "internalType": "uint256",
          "name": "defenseStrength",
          "type": "uint256"
        }
      ],
      "stateMutability": "view",
      "type": "function"
    },
    {
      "inputs": [],
      "name": "getAllBattles",
      "outputs": [
        {
          "components": [
            {
              "internalType": "enum AVAXGods.BattleStatus",
              "name": "battleStatus",
              "type": "uint8"
            },
            {
              "internalType": "bytes32",
              "name": "battleHash",
              "type": "bytes32"
            },
            {
              "internalType": "string",
              "name": "name",
              "type": "string"
            },
            {
              "internalType": "address[2]",
              "name": "players",
              "type": "address[2]"
            },
            {
              "internalType": "uint8[2]",
              "name": "moves",
              "type": "uint8[2]"
            },
            {
              "internalType": "address",
              "name": "winner",
              "type": "address"
            }
          ],
          "internalType": "struct AVAXGods.Battle[]",
          "name": "",
          "type": "tuple[]"
        }
      ],
      "stateMutability": "view",
      "type": "function"
    },
    {
      "inputs": [],
      "name": "getAllPlayerTokens",
      "outputs": [
        {
          "components": [
            {
              "internalType": "string",
              "name": "name",
              "type": "string"
            },
            {
              "internalType": "uint256",
              "name": "id",
              "type": "uint256"
            },
            {
              "internalType": "uint256",
              "name": "attackStrength",
              "type": "uint256"
            },
            {
              "internalType": "uint256",
              "name": "defenseStrength",
              "type": "uint256"
            }
          ],
          "internalType": "struct AVAXGods.GameToken[]",
          "name": "",
          "type": "tuple[]"
        }
      ],
      "stateMutability": "view",
      "type": "function"
    },
    {
      "inputs": [],
      "name": "getAllPlayers",
      "outputs": [
        {
          "components": [
            {
              "internalType": "address",
              "name": "playerAddress",
              "type": "address"
            },
            {
              "internalType": "string",
              "name": "playerName",
              "type": "string"
            },
            {
              "internalType": "uint256",
              "name": "playerMana",
              "type": "uint256"
            },
            {
              "internalType": "uint256",
              "name": "playerHealth",
              "type": "uint256"
            },
            {
              "internalType": "bool",
              "name": "inBattle",
              "type": "bool"
            }
          ],
          "internalType": "struct AVAXGods.Player[]",
          "name": "",
          "type": "tuple[]"
        }
      ],
      "stateMutability": "view",
      "type": "function"
    },
    {
      "inputs": [
        {
          "internalType": "string",
          "name": "_name",
          "type": "string"
        }
      ],
      "name": "getBattle",
      "outputs": [
        {
          "components": [
            {
              "internalType": "enum AVAXGods.BattleStatus",
              "name": "battleStatus",
              "type": "uint8"
            },
            {
              "internalType": "bytes32",
              "name": "battleHash",
              "type": "bytes32"
            },
            {
              "internalType": "string",
              "name": "name",
              "type": "string"
            },
            {
              "internalType": "address[2]",
              "name": "players",
              "type": "address[2]"
            },
            {
              "internalType": "uint8[2]",
              "name": "moves",
              "type": "uint8[2]"
            },
            {
              "internalType": "address",
              "name": "winner",
              "type": "address"
            }
          ],
          "internalType": "struct AVAXGods.Battle",
          "name": "",
          "type": "tuple"
        }
      ],
      "stateMutability": "view",
      "type": "function"
    },
    {
      "inputs": [
        {
          "internalType": "string",
          "name": "_battleName",
          "type": "string"
        }
      ],
      "name": "getBattleMoves",
      "outputs": [
        {
          "internalType": "uint256",
          "name": "P1Move",
          "type": "uint256"
        },
        {
          "internalType": "uint256",
          "name": "P2Move",
          "type": "uint256"
        }
      ],
      "stateMutability": "view",
      "type": "function"
    },
    {
      "inputs": [
        {
          "internalType": "address",
          "name": "addr",
          "type": "address"
        }
      ],
      "name": "getPlayer",
      "outputs": [
        {
          "components": [
            {
              "internalType": "address",
              "name": "playerAddress",
              "type": "address"
            },
            {
              "internalType": "string",
              "name": "playerName",
              "type": "string"
            },
            {
              "internalType": "uint256",
              "name": "playerMana",
              "type": "uint256"
            },
            {
              "internalType": "uint256",
              "name": "playerHealth",
              "type": "uint256"
            },
            {
              "internalType": "bool",
              "name": "inBattle",
              "type": "bool"
            }
          ],
          "internalType": "struct AVAXGods.Player",
          "name": "",
          "type": "tuple"
        }
      ],
      "stateMutability": "view",
      "type": "function"
    },
    {
      "inputs": [
        {
          "internalType": "address",
          "name": "addr",
          "type": "address"
        }
      ],
      "name": "getPlayerToken",
      "outputs": [
        {
          "components": [
            {
              "internalType": "string",
              "name": "name",
              "type": "string"
            },
            {
              "internalType": "uint256",
              "name": "id",
              "type": "uint256"
            },
            {
              "internalType": "uint256",
              "name": "attackStrength",
              "type": "uint256"
            },
            {
              "internalType": "uint256",
              "name": "defenseStrength",
              "type": "uint256"
            }
          ],
          "internalType": "struct AVAXGods.GameToken",
          "name": "",
          "type": "tuple"
        }
      ],
      "stateMutability": "view",
      "type": "function"
    },
    {
      "inputs": [],
      "name": "getTotalSupply",
      "outputs": [
        {
          "internalType": "uint256",
          "name": "",
          "type": "uint256"
        }
      ],
      "stateMutability": "view",
      "type": "function"
    },
    {
      "inputs": [
        {
          "internalType": "address",
          "name": "account",
          "type": "address"
        },
        {
          "internalType": "address",
          "name": "operator",
          "type": "address"
        }
      ],
      "name": "isApprovedForAll",
      "outputs": [
        {
          "internalType": "bool",
          "name": "",
          "type": "bool"
        }
      ],
      "stateMutability": "view",
      "type": "function"
    },
    {
      "inputs": [
        {
          "internalType": "string",
          "name": "_name",
          "type": "string"
        }
      ],
      "name": "isBattle",
      "outputs": [
        {
          "internalType": "bool",
          "name": "",
          "type": "bool"
        }
      ],
      "stateMutability": "view",
      "type": "function"
    },
    {
      "inputs": [
        {
          "internalType": "address",
          "name": "addr",
          "type": "address"
        }
      ],
      "name": "isPlayer",
      "outputs": [
        {
          "internalType": "bool",
          "name": "",
          "type": "bool"
        }
      ],
      "stateMutability": "view",
      "type": "function"
    },
    {
      "inputs": [
        {
          "internalType": "address",
          "name": "addr",
          "type": "address"
        }
      ],
      "name": "isPlayerToken",
      "outputs": [
        {
          "internalType": "bool",
          "name": "",
          "type": "bool"
        }
      ],
      "stateMutability": "view",
      "type": "function"
    },
    {
      "inputs": [
        {
          "internalType": "string",
          "name": "_name",
          "type": "string"
        }
      ],
      "name": "joinBattle",
      "outputs": [
        {
          "components": [
            {
              "internalType": "enum AVAXGods.BattleStatus",
              "name": "battleStatus",
              "type": "uint8"
            },
            {
              "internalType": "bytes32",
              "name": "battleHash",
              "type": "bytes32"
            },
            {
              "internalType": "string",
              "name": "name",
              "type": "string"
            },
            {
              "internalType": "address[2]",
              "name": "players",
              "type": "address[2]"
            },
            {
              "internalType": "uint8[2]",
              "name": "moves",
              "type": "uint8[2]"
            },
            {
              "internalType": "address",
              "name": "winner",
              "type": "address"
            }
          ],
          "internalType": "struct AVAXGods.Battle",
          "name": "",
          "type": "tuple"
        }
      ],
      "stateMutability": "nonpayable",
      "type": "function"
    },
    {
      "inputs": [],
      "name": "owner",
      "outputs": [
        {
          "internalType": "address",
          "name": "",
          "type": "address"
        }
      ],
      "stateMutability": "view",
      "type": "function"
    },
    {
      "inputs": [
        {
          "internalType": "address",
          "name": "",
          "type": "address"
        }
      ],
      "name": "playerInfo",
      "outputs": [
        {
          "internalType": "uint256",
          "name": "",
          "type": "uint256"
        }
      ],
      "stateMutability": "view",
      "type": "function"
    },
    {
      "inputs": [
        {
          "internalType": "address",
          "name": "",
          "type": "address"
        }
      ],
      "name": "playerTokenInfo",
      "outputs": [
        {
          "internalType": "uint256",
          "name": "",
          "type": "uint256"
        }
      ],
      "stateMutability": "view",
      "type": "function"
    },
    {
      "inputs": [
        {
          "internalType": "uint256",
          "name": "",
          "type": "uint256"
        }
      ],
      "name": "players",
      "outputs": [
        {
          "internalType": "address",
          "name": "playerAddress",
          "type": "address"
        },
        {
          "internalType": "string",
          "name": "playerName",
          "type": "string"
        },
        {
          "internalType": "uint256",
          "name": "playerMana",
          "type": "uint256"
        },
        {
          "internalType": "uint256",
          "name": "playerHealth",
          "type": "uint256"
        },
        {
          "internalType": "bool",
          "name": "inBattle",
          "type": "bool"
        }
      ],
      "stateMutability": "view",
      "type": "function"
    },
    {
      "inputs": [
        {
          "internalType": "string",
          "name": "_battleName",
          "type": "string"
        }
      ],
      "name": "quitBattle",
      "outputs": [],
      "stateMutability": "nonpayable",
      "type": "function"
    },
    {
      "inputs": [
        {
          "internalType": "string",
          "name": "_name",
          "type": "string"
        },
        {
          "internalType": "string",
          "name": "_gameTokenName",
          "type": "string"
        }
      ],
      "name": "registerPlayer",
      "outputs": [],
      "stateMutability": "nonpayable",
      "type": "function"
    },
    {
      "inputs": [],
      "name": "renounceOwnership",
      "outputs": [],
      "stateMutability": "nonpayable",
      "type": "function"
    },
    {
      "inputs": [
        {
          "internalType": "address",
          "name": "from",
          "type": "address"
        },
        {
          "internalType": "address",
          "name": "to",
          "type": "address"
        },
        {
          "internalType": "uint256[]",
          "name": "ids",
          "type": "uint256[]"
        },
        {
          "internalType": "uint256[]",
          "name": "amounts",
          "type": "uint256[]"
        },
        {
          "internalType": "bytes",
          "name": "data",
          "type": "bytes"
        }
      ],
      "name": "safeBatchTransferFrom",
      "outputs": [],
      "stateMutability": "nonpayable",
      "type": "function"
    },
    {
      "inputs": [
        {
          "internalType": "address",
          "name": "from",
          "type": "address"
        },
        {
          "internalType": "address",
          "name": "to",
          "type": "address"
        },
        {
          "internalType": "uint256",
          "name": "id",
          "type": "uint256"
        },
        {
          "internalType": "uint256",
          "name": "amount",
          "type": "uint256"
        },
        {
          "internalType": "bytes",
          "name": "data",
          "type": "bytes"
        }
      ],
      "name": "safeTransferFrom",
      "outputs": [],
      "stateMutability": "nonpayable",
      "type": "function"
    },
    {
      "inputs": [
        {
          "internalType": "address",
          "name": "operator",
          "type": "address"
        },
        {
          "internalType": "bool",
          "name": "approved",
          "type": "bool"
        }
      ],
      "name": "setApprovalForAll",
      "outputs": [],
      "stateMutability": "nonpayable",
      "type": "function"
    },
    {
      "inputs": [
        {
          "internalType": "string",
          "name": "newuri",
          "type": "string"
        }
      ],
      "name": "setURI",
      "outputs": [],
      "stateMutability": "nonpayable",
      "type": "function"
    },
    {
      "inputs": [
        {
          "internalType": "bytes4",
          "name": "interfaceId",
          "type": "bytes4"
        }
      ],
      "name": "supportsInterface",
      "outputs": [
        {
          "internalType": "bool",
          "name": "",
          "type": "bool"
        }
      ],
      "stateMutability": "view",
      "type": "function"
    },
    {
      "inputs": [
        {
          "internalType": "uint256",
          "name": "tokenId",
          "type": "uint256"
        }
      ],
      "name": "tokenURI",
      "outputs": [
        {
          "internalType": "string",
          "name": "",
          "type": "string"
        }
      ],
      "stateMutability": "view",
      "type": "function"
    },
    {
      "inputs": [],
      "name": "totalSupply",
      "outputs": [
        {
          "internalType": "uint256",
          "name": "",
          "type": "uint256"
        }
      ],
      "stateMutability": "view",
      "type": "function"
    },
    {
      "inputs": [
        {
          "internalType": "uint256",
          "name": "id",
          "type": "uint256"
        }
      ],
      "name": "totalSupply",
      "outputs": [
        {
          "internalType": "uint256",
          "name": "",
          "type": "uint256"
        }
      ],
      "stateMutability": "view",
      "type": "function"
    },
    {
      "inputs": [
        {
          "internalType": "address",
          "name": "newOwner",
          "type": "address"
        }
      ],
      "name": "transferOwnership",
      "outputs": [],
      "stateMutability": "nonpayable",
      "type": "function"
    },
    {
      "inputs": [
        {
          "internalType": "uint256",
          "name": "",
          "type": "uint256"
        }
      ],
      "name": "uri",
      "outputs": [
        {
          "internalType": "string",
          "name": "",
          "type": "string"
        }
      ],
      "stateMutability": "view",
      "type": "function"
    }
  ],
  "bytecode": "0x60806040523462000ab457620050c3803803806200001d8162000af9565b92833981019060208183031262000ab4578051906001600160401b03821162000ab4570181601f8201121562000ab4578051906001600160401b0382116200073c5762000074601f8301601f191660200162000af9565b928284526020838301011162000ab45760005b82811062000a9e57600083850160200152835184906001600160401b0381116200073c57600254600181811c9116801562000a93575b60208210146200071b57601f811162000a51575b50806020601f8211600114620009d957600091620009cd575b508160011b916000199060031b1c1916176002555b60038054336001600160a01b0319821681179092556040516001600160a01b03909116907f8be0079c531659141344cd1fd0a4f28419497f9722a3daafe3b4186f6b6457e090600090a380516001600160401b0381116200073c57600554600181811c91168015620009c2575b60208210146200071b57601f81116200098b575b50602091601f8211600114620009215791819260009262000915575b50508160011b916000199060031b1c1916176005555b604051608081016001600160401b038111828210176200073c57604052620001d962000ad9565b6000815281526020810190600082526040810160008152606082019060008252600b54680100000000000000008110156200073c576001810180600b558110156200076857600b600052925180519460029490941b7f0175b7a638427703f0dbe7bb9bbf987a2551717b34e79f33b5b1008d1fa01db90193906001600160401b0386116200073c578454600181811c911680156200090a575b60208210146200071b57601f8111620008d4575b50602090601f871160011462000865579580916003969760009262000859575b50508160011b9160001990871b1c19161785555b5160018501555160028401555191015560405160a081016001600160401b038111828210176200073c5760405260008152620002f562000ad9565b600081526020820152600060408201526000606082015260006080820152600a5490680100000000000000008210156200073c576001820180600a558210156200076857600a6000528051600583027fc65a7bb8d6351c1cf70c95a316cc6a92839c986682d98bc35f958f4883f9d2a890810180546001600160a01b0319166001600160a01b039390931692909217909155602082015180519093906001600160401b0381116200073c5760016005830284010154600181811c911680156200084e575b60208210146200071b57601f811162000810575b506020601f82116001146200078a57918160059260049594608097986000926200077e575b50508160011b916000199060031b1c1916176001838302850101555b60408601516002838302850101556060860151600383830285010155020101910151151560ff801983541691161790556200044862000ab9565b60008152600060208201526200045d62000ab9565b60008082526020820152604051916001600160401b0360c08401908111908411176200073c5760c0830160405260008352600060208401526200049f62000ad9565b60008152604084015260608301526080820152600060a0820152600c5490680100000000000000008210156200073c576001820180600c558210156200076857600c60005280517fdf6966c971051c3d54ec59162606531493a51404a002842f56009d7e5cf4a8c79060038110156200075257600784028201805460ff191660ff929092169190911781556020830151600182015560408301518051600290920191906001600160401b0382116200073c57825490600182811c9216801562000731575b60208310146200071b5781601f849311620006d9575b50602090601f83116001146200066e5760009262000662575b50508160011b916000199060031b1c19161790555b606082015160005b600281106200063c575050608082015192600093845b6002811062000614576007830284016005810187905560a086015160069190910180546001600160a01b0319166001600160a01b039290921691909117905560405161456a908162000b398239f35b9094602060019160ff885116908460031b60ff811b9283911b169119161796019101620005c5565b81516001600160a01b0316600360078702850183010155602090910190600101620005af565b01519050868062000592565b6000858152602081209350601f198516905b818110620006c05750908460019594939210620006a6575b505050811b019055620005a7565b015160001960f88460031b161c1916905586808062000698565b9293602060018192878601518155019501930162000680565b6200070990856000526020600020601f850160051c8101916020861062000710575b601f0160051c019062000b1f565b8762000579565b9091508190620006fb565b634e487b7160e01b600052602260045260246000fd5b91607f169162000563565b634e487b7160e01b600052604160045260246000fd5b634e487b7160e01b600052602160045260246000fd5b634e487b7160e01b600052603260045260246000fd5b015190508880620003f2565b60016005840285010160005260206000209560005b601f1984168110620007f7575082608096976004969593600193600596601f19811610620007dd575b505050811b016001838302850101556200040e565b015160001960f88460031b161c19169055888080620007c8565b828201518855600190970196602092830192016200079f565b62000847906001600585028601016000526020600020601f840160051c810191602085106200071057601f0160051c019062000b1f565b85620003cd565b90607f1690620003b9565b015190508780620002a6565b90601f198716918660005260206000209260005b818110620008bb57509160019391896003999a9410620008a2575b505050811b018555620002ba565b015160001983891b60f8161c1916905587808062000894565b9293602060018192878601518155019501930162000879565b6200090390866000526020600020601f890160051c81019160208a106200071057601f0160051c019062000b1f565b8662000286565b90607f169062000272565b0151905082806200019c565b601f19821692600560005260206000209160005b858110620009725750836001951062000958575b505050811b01600555620001b2565b015160001960f88460031b161c1916905582808062000949565b9192602060018192868501518155019401920162000935565b620009bb9060056000526020600020601f840160051c810191602085106200071057601f0160051c019062000b1f565b8262000180565b90607f16906200016c565b905082015183620000ea565b60026000908152600080516020620050a38339815191529250601f198416905b81811062000a385750908360019493921062000a1e575b5050811b01600255620000ff565b84015160001960f88460031b161c19169055838062000a10565b91926020600181928689015181550194019201620009f9565b600260005262000a8c90600080516020620050a3833981519152601f840160051c810191602085106200071057601f0160051c019062000b1f565b82620000d1565b90607f1690620000bd565b8060208092840101518282870101520162000087565b600080fd5b60408051919082016001600160401b038111838210176200073c57604052565b60405190602082016001600160401b038111838210176200073c57604052565b6040519190601f01601f191682016001600160401b038111838210176200073c57604052565b81811062000b2b575050565b6000815560010162000b1f56fe6080604052600436101561001257600080fd5b60003560e01c8062fdd58e14612f0d578063015a379214612e2457806301ffc9a714612db657806302fe530514612c8f5780630677aa4e14612c7357806309c95e1014612c505780630daea2cd14612c345780630e89341c14612b8357806310898e4c14612b4b5780631107ae3d14612b1157806316801d1714612ac757806318160ddd146109ee5780632711162e14612a8d5780632ca04522146129105780632eb2c2d6146124cf5780633835e2b5146124735780634b114691146124395780634e1273f41461229b5780634f558e791461226d5780635c12cd4b146122355780635c93fc3d1461214c578063606d2e96146120c55780636c0360eb14611fe3578063703730a514611fc7578063715018a614611f65578063811e0acc14611e69578063845f433b14611b785780638da5cb5b14611b4f578063996d7bea14611a7c5780639b09cc8714611a265780639e4ecd1114611a0a5780639ec40aa3146119d2578063a1b4f57c146117b8578063a22cb465146116cb578063ba27495614610af4578063bd85b03914610ac8578063bf034b6914610a39578063bf103a4d14610a0c578063c4e41b22146109ee578063c87b56dd146108e2578063d2198cc5146108c6578063de96cefc146108aa578063e985e9c514610854578063efa1c4821461076b578063f1da73391461074f578063f242432a14610386578063f2fde38b146102ba5763f71d96cb1461022b57600080fd5b346102b55760203660031901126102b557600435600a548110156102b557600a6000526005602060002091020160018060a01b0381541661026e600183016132ef565b9160028101549060ff60046003830154920154169061029f604051958695865260a0602087015260a0860190612f8b565b9260408501526060840152151560808301520390f35b600080fd5b346102b55760203660031901126102b5576102d3612f3c565b6102db6133d3565b6001600160a01b0390811690811561033257600380546001600160a01b03198116841790915560405160009390929091167f8be0079c531659141344cd1fd0a4f28419497f9722a3daafe3b4186f6b6457e08484a3f35b60405162461bcd60e51b815260206004820152602660248201527f4f776e61626c653a206e6577206f776e657220697320746865207a65726f206160448201526564647265737360d01b6064820152608490fd5b346102b55760a03660031901126102b55761039f612f3c565b6103a7612f52565b90608480356001600160401b0381116102b5576103c890369060040161308c565b6001600160a01b03919083831633148015610724575b6103e7906134e0565b828516156103f58115613544565b610400604435613757565b61040b606435613757565b91858716156106c4575b610604575b5050604435600052602094600086526040600020848616600052865260406000205461044a60643582101561359e565b604435600052600087526040600020858716600052875260643590036040600020556044356000526000865260406000208482166000528652604060002061049560643582546135fd565b905560405160443581526064358782015284821690858716907fc3d58168c5ae7397731d063d5bbf3d657854427343f4c083240f7aacaa2d0f6260403392a4803b6104dd575b005b60a06000610527958895604051978896879586938563f23a6e6160e01b9d8e87523360048801521660248601526044356044860152606435606486015284015260a4830190612f8b565b0393165af1600091816105d5575b506105ab575050600190610547613673565b6308c379a014610576575b5061055957005b60405162461bcd60e51b81528061057260048201613702565b0390fd5b61057e613691565b908161058a5750610552565b61057260405192839262461bcd60e51b845260048401526024830190612f8b565b6001600160e01b0319161490506104db5760405162461bcd60e51b8152806105726004820161362a565b6105f6919250843d86116105fd575b6105ee8183613050565b81019061360a565b9084610535565b503d6105e4565b92959194909360005b84518110156106b55761062081866134cc565b519061062c81886134cc565b518260005260046020526040600020548181106106605761065b936000526004602052036040600020556134b0565b61060d565b60405162461bcd60e51b815260206004820152602860248201527f455243313135353a206275726e20616d6f756e74206578636565647320746f74604482015267616c537570706c7960c01b60648201528b90fd5b5093509390949150858061041a565b959260009794919592975b865181101561071657806106e6610711928b6134cc565b516106f1828a6134cc565b51600052600460205261070a60406000209182546135fd565b90556134b0565b6106cf565b509295969194909396610415565b5082841660005260016020526040600020336000526020526103e760ff6040600020541690506103de565b346102b55760003660031901126102b557602060405160048152f35b346102b55760003660031901126102b557600a546107888161318f565b906107966040519283613050565b808252600a6000908152602091828401917fc65a7bb8d6351c1cf70c95a316cc6a92839c986682d98bc35f958f4883f9d2a8835b8383106108315750505050604051918083019381845251809452604083019360408160051b85010192916000955b8287106108055785850386f35b909192938280610821600193603f198a82030186528851613238565b96019201960195929190926107f8565b600586600192610843859a999a6137a2565b8152019201920191909594956107ca565b346102b55760403660031901126102b55761086d612f3c565b610875612f52565b9060018060a01b03809116600052600160205260406000209116600052602052602060ff604060002054166040519015158152f35b346102b55760003660031901126102b557602060405160018152f35b346102b55760003660031901126102b557602060405160008152f35b346102b5576020806003193601126102b5576108ff600435614451565b90604051918260009160055492610915846132b5565b6001948686821691826000146109c9575050600114610987575b509264173539b7b760d91b6006939285602f60f81b61096f975261095b825180938a8785019101612f68565b019182015203601919810185520183613050565b610983604051928284938452830190612f8b565b0390f35b8591506005600052816000206000905b8282106109b157505083010164173539b7b760d91b61092f565b80548983018501528895508793909101908601610997565b60ff1916818701528215159092028501909101915064173539b7b760d91b905061092f565b346102b55760003660031901126102b5576020600654604051908152f35b346102b55760203660031901126102b5576020610a2f610a2a612f3c565b613892565b6040519015158152f35b346102b55760203660031901126102b557600435600b548110156102b557600b600052610ab49060021b7f0175b7a638427703f0dbe7bb9bbf987a2551717b34e79f33b5b1008d1fa01db901610a8e816132ef565b906001810154906003600282015491015490604051948594608086526080860190612f8b565b926020850152604084015260608301520390f35b346102b55760203660031901126102b55760043560005260046020526020604060002054604051908152f35b346102b55760403660031901126102b55760043560ff81168091036102b55760249081356001600160401b0381116102b557610b3490369060040161308c565b90610b3e82613ad0565b8051600381101561164257600103611657578051600381101561164257600214611603576060810190815160018060a01b0381511633149081156115ec575b50156115a857608001518151516001600160a01b031633036115a0576000905b600260ff8316101561149c57611fe060ff9260051b1601511661155c5751516001600160a01b031633036115555760005b6001821480801561154b575b1561150757156115005760036040610bf1336137f2565b015110155b156114b15760405191610c2784519360208181880196610c1781838a612f68565b8101600981520301902054613280565b5090600260ff8416101561149c57601f6005610c5d93600786831c160101931683549060031b60ff811b9283911b169119161790565b90556080610c6a83613ad0565b0180515160ff166114935760ff60005b166002039060ff821161121657516020015160ff166114895760ff8060005b1691160360ff81116111365760ff16906001820361147e57610cc96001915b604051809281928751928391612f68565b8101039020901515907f54b82b77e7ae55a8e6c9e89deba70c7191dea2a3b08ae647b380e9f981d6a0f86000604051a315610d0057005b610d0990613ad0565b606081015180516001600160a01b03163314908115611467575b501561140f57608081015160ff815116151590816113fe575b50156113b05760018060a01b0360608201515116600052600760205260406000205460ff608083015151166060610d7e60018060a01b038286015151166137f2565b0151606084015151604090610d9b906001600160a01b0316613911565b015160608581015151919291610db9906001600160a01b0316613911565b01519260405194610dc98661301a565b8552602085015260408401526060830152608082015260018060a01b0360206060840151015116600052600760205260406000205460ff602060808501510151166060610e2460018060a01b036020838801510151166137f2565b0151606085015160200151604090610e44906001600160a01b0316613911565b015160608681015160200151919291610e65906001600160a01b0316613911565b01519260405194610e758661301a565b8552602085015260408401526060830152608082015260405191610e9883612fe4565b6000835260006020840152826020820151600181148080916113a2575b15611160575050506060810151604083015111611085575050606082015151610ee89083906001600160a01b031661430e565b505b604051906000825b600282106110655750505060407fc6bf860cbc15f7020f73993a671f01bbb1831a8a7a12c126ca735eb632e7577591a160006080820151526000602060808301510152610f438160408101516142a4565b606081015151610f5b906001600160a01b0316614088565b60018060a01b03606083015151166000526008602052806002610f82604060002054613395565b500155600a03600a81116110505760018060a01b036060830151511660005260086020526003610fb6604060002054613395565b500155606081015160200151610fd4906001600160a01b0316614088565b60018060a01b03602060608401510151166000526008602052806002610ffe604060002054613395565b500155600a0391600a831161103c57506020606060018060a01b0392015101511660005260086020526003611037604060002054613395565b500155005b634e487b7160e01b60009081526011600452fd5b82634e487b7160e01b60005260116004526000fd5b82516001600160a01b031681526020928301926001929092019101610ef2565b6060820151604082015181106110bb575050506060820151602001516110b59083906001600160a01b031661430e565b50610eea565b6002929350906110fc916110de60036110d484516133b4565b500191825461407b565b905560608101516110f460036110d487516133b4565b9055516133b4565b50018054600219928382019291831161114b5760029261111d9255516133b4565b5001805491820191821161113657556060810151610eea565b83634e487b7160e01b60005260116004526000fd5b85634e487b7160e01b60005260116004526000fd5b80611394575b1561124e575061117f60408401516080850151906135fd565b6060830151909290918383106111ae575050506060840151516110b592508491506001600160a01b031661430e565b6002936111e1938060808801511160001461122b5750505060408401515b60036111d886516133b4565b500155516133b4565b5001805460021981019290831161114b576002926112009255516133b4565b5001805490600382018092116112165755610eea565b84634e487b7160e01b60005260116004526000fd5b6112349161407b565b6060880151602001516001600160a01b03169091526111cc565b6002148080611386575b15611322575061127160408301516080840151906135fd565b6060840151909290918383106112a3575050506060840151602001516110b592508491506001600160a01b031661430e565b6002936112cd93806080850151116000146113025750505060408101515b60036111d883516133b4565b50018054916003830180931161114b576002926112eb9255516133b4565b500180546002198101919082116112165755610eea565b61130b9161407b565b6060880151516001600160a01b03169091526112c1565b905080611378575b611336575b5050610eea565b611342600291516133b4565b50018054916003830180931161114b576002926113609255516133b4565b5001805490600382018092116112165755838061132f565b50600260208301511461132a565b506001602085015114611258565b506002602085015114611166565b506001602086015114610eb5565b60405162461bcd60e51b8152602060048201526021818401527f506c6179657273207374696c6c206e65656420746f206d616b652061206d6f766044820152606560f81b6064820152608490fd5b60ff91506020015116151583610d3c565b60405162461bcd60e51b815260206004820152602b818401527f4f6e6c7920706c617965727320696e207468697320626174746c652063616e2060448201526a6d616b652061206d6f766560a81b6064820152608490fd5b602001516001600160a01b03163314905083610d23565b610cc9600091610cb8565b60ff806001610c99565b60ff6001610c7a565b85634e487b7160e01b60005260326004526000fd5b60405162461bcd60e51b8152602060048201526022818601527f4d616e61206e6f742073756666696369656e7420666f722061747461636b696e604482015261672160f01b6064820152608490fd5b6001610bf6565b60405162461bcd60e51b815260206004820152601f818701527f43686f6963652073686f756c64206265206569746865722031206f72203221006044820152606490fd5b5060028314610bda565b6001610bce565b60405162461bcd60e51b815260206004820152601d818601527f596f75206861766520616c7265616479206d6164652061206d6f7665210000006044820152606490fd5b600190610b9d565b60405162461bcd60e51b815260206004820152601a818701527f596f7520617265206e6f7420696e207468697320626174746c650000000000006044820152606490fd5b602001516001600160a01b03163314905086610b7d565b60405162461bcd60e51b8152602060048201526018818601527710985d1d1b19481a185cc8185b1c9958591e48195b99195960421b6044820152606490fd5b84634e487b7160e01b60005260216004526000fd5b60405162461bcd60e51b8152602060048201526041818601527f426174746c65206e6f7420737461727465642e20506c656173652074656c6c2060448201527f616e6f7468657220706c6179657220746f206a6f696e2074686520626174746c6064820152606560f81b608482015260a490fd5b346102b55760403660031901126102b5576116e4612f3c565b60243590811515908183036102b5576001600160a01b031691338314611761576117339033600052600160205260406000208460005260205260406000209060ff801983541691151516179055565b6040519081527f17307eab39ab6107e8899845ad3d59bd9653f200f220920489ca2b5937696c3160203392a3005b60405162461bcd60e51b815260206004820152602960248201527f455243313135353a2073657474696e6720617070726f76616c20737461747573604482015268103337b91039b2b63360b91b6064820152608490fd5b346102b5576020806003193601126102b5576004356001600160401b0381116102b5576117e990369060040161308c565b906117f26139c1565b506117fc82613ad0565b91825160038110156119bc5761197d576060830180515190916001600160a01b03918216331461192e576080611831336137f2565b01516118f5578461184b91600182523386865101526142a4565b80825151166000526007835260046118676040600020546133b4565b500160ff19906001828254161790558184845101511660005260078452600160046118966040600020546133b4565b5001918254161790556040840151915151167f024187b16c217a79f8d8e6252b542ec6e278fa91304acd9cfd866f2bbf00bd08604051848152806118de339587830190612f8b565b0390a36109836040519282849384528301906130e0565b60405162461bcd60e51b8152600481018590526011602482015270416c726561647920696e20626174746c6560781b6044820152606490fd5b60405162461bcd60e51b815260048101859052602160248201527f4f6e6c7920706c617965722074776f2063616e206a6f696e206120626174746c6044820152606560f81b6064820152608490fd5b60405162461bcd60e51b8152600481018390526017602482015276426174746c6520616c726561647920737461727465642160481b6044820152606490fd5b634e487b7160e01b600052602160045260246000fd5b346102b55760203660031901126102b5576004356001600160401b0381116102b557611a056104db91369060040161308c565b613bac565b346102b55760003660031901126102b557602060405160058152f35b346102b55760203660031901126102b5576004356001600160401b0381116102b5576080611a62611a5d604093369060040161308c565b613ad0565b015160ff6020818351169201511682519182526020820152f35b346102b55760203660031901126102b5576004356001600160401b0381116102b557611a5d611aaf91369060040161308c565b6060810190815160018060a01b0390818151163314908115611b3f575b5015611afa578251518116338103611aee575060206104db935101511661430e565b90506104db925061430e565b60405162461bcd60e51b815260206004820152601b60248201527f596f7520617265206e6f7420696e207468697320626174746c652100000000006044820152606490fd5b6020015182163314905084611acc565b346102b55760003660031901126102b5576003546040516001600160a01b039091168152602090f35b346102b55760403660031901126102b5576001600160401b036004358181116102b557611ba990369060040161308c565b6024358281116102b557611bc190369060040161308c565b611bca3361377c565b611e2857600a54604051611bdd8161301a565b33815260209485820185815260408301600a8152606084019160198352608085019360008552600160401b871015611dfc5760018701600a55611c1f876133b4565b969096611e12575186546001600160a01b0319166001600160a01b03919091161786559051805160018701929091908211611dfc57611c5e83546132b5565b8b601f8211611dc0575b50508a90601f8311600114611d245794611cee94611d01989484600495611d149d9a957f81ef79d1cda814a60c0fc60792e648a06d9c6bae67176346d1cc8b63030bfccd9f9d9a600092611d19575b50508160011b916000199060031b1c19161790555b51600285015551600384015551151591019060ff801983541691151516179055565b3360005260078752604060002055613bac565b6040519182918583523395830190612f8b565b0390a2005b015190503880611cb7565b60008481528c8120929190601f198516908e5b828210611da857505094600185611d149d9a957f81ef79d1cda814a60c0fc60792e648a06d9c6bae67176346d1cc8b63030bfccd9f9d9a95611cee9a95600499611d019f9b10611d8f575b505050811b019055611ccc565b015160001960f88460031b161c19169055388080611d82565b80600186978294978701518155019601940190611d37565b611deb91856000528160002090601f860160051c8201928610611df2575b601f0160051c0190613b49565b8b8b611c68565b9091508190611dde565b634e487b7160e01b600052604160045260246000fd5b634e487b7160e01b600052600060045260246000fd5b60405162461bcd60e51b8152602060048201526019602482015278141b185e595c88185b1c9958591e481c9959da5cdd195c9959603a1b6044820152606490fd5b346102b55760003660031901126102b55760196060611e87336137f2565b01511015611f275760016080611e9c336137f2565b0151151503611ee7573360005260076020526003611ebe6040600020546133b4565b500180549060058201809211611ed15755005b634e487b7160e01b600052601160045260246000fd5b60405162461bcd60e51b8152602060048201526018602482015277506c61796572206d75737420626520696e20626174746c6560401b6044820152606490fd5b60405162461bcd60e51b81526020600482015260166024820152751219585b1d1a081a5cc8185b1c9958591e48199d5b1b60521b6044820152606490fd5b346102b55760003660031901126102b557611f7e6133d3565b600380546001600160a01b0319811690915560405160009182906001600160a01b03167f8be0079c531659141344cd1fd0a4f28419497f9722a3daafe3b4186f6b6457e08284a3f35b346102b55760003660031901126102b557602060405160028152f35b346102b55760003660031901126102b557604051600090600554612006816132b5565b80835260019180831690811561209d5750600114612043575b6109838361202f81870382613050565b604051918291602083526020830190612f8b565b6005600090815260209450917f036b6384b5eca791c62761152d0c79bb0604c104a5fb6f4eb0703f3154bb3db05b82841061208a5750505081019091019061202f8161201f565b8054858501870152928501928101612071565b610983955061202f93506020915091849260ff191682840152151560051b820101935061201f565b346102b55760203660031901126102b557600435600c548110156102b55761212c90600c6000526007602060002091020160ff81541690612142600182015491612111600282016132ef565b90600660018060a01b039101541692604051958680966130d3565b6020850152608060408501526080840190612f8b565b9060608301520390f35b346102b55760003660031901126102b557600c546121698161318f565b906121776040519283613050565b808252600c6000908152602091828401917fdf6966c971051c3d54ec59162606531493a51404a002842f56009d7e5cf4a8c7835b8383106122125750505050604051918083019381845251809452604083019360408160051b85010192916000955b8287106121e65785850386f35b909192938280612202600193603f198a820301865288516130e0565b96019201960195929190926121d9565b600786600192612224859a999a613a10565b8152019201920191909594956121ab565b346102b55760203660031901126102b557610983612259612254612f3c565b6137f2565b604051918291602083526020830190613238565b346102b55760203660031901126102b557600435600052600460205260206040600020541515604051908152f35b346102b55760403660031901126102b5576004356001600160401b038082116102b557366023830112156102b5578160040135906122d88261318f565b926122e66040519485613050565b82845260209260248486019160051b830101913683116102b557602401905b82821061241a575050506024359081116102b5576123279036906004016131a6565b82518151036123c35782519261233c8461318f565b9361234a6040519586613050565b808552612359601f199161318f565b01368486013760005b81518110156123ac576123a7906123976001600160a01b0361238483866134cc565b511661239083876134cc565b519061342b565b6123a182886134cc565b526134b0565b612362565b505050610983604051928284938452830190613204565b60405162461bcd60e51b815260048101839052602960248201527f455243313135353a206163636f756e747320616e6420696473206c656e677468604482015268040dad2e6dac2e8c6d60bb1b6064820152608490fd5b81356001600160a01b03811681036102b5578152908401908401612305565b346102b55760203660031901126102b5576001600160a01b0361245a612f3c565b1660005260076020526020604060002054604051908152f35b346102b55760203660031901126102b5576004356001600160401b0381116102b5576124bc60206124a98193369060040161308c565b8160405193828580945193849201612f68565b8101600981520301902054604051908152f35b346102b55760031960a0368201126102b5576124e9612f3c565b906124f2612f52565b906001600160401b03604480358281116102b5576125149036906004016131a6565b9060649081358481116102b55761252f9036906004016131a6565b9460849485359081116102b55761254a90369060040161308c565b6001600160a01b0398891698909190338a1480156128e7575b61256c906134e0565b85518851036128945788169586156125848115613544565b8a15612851575b61278c575b60005b865181101561262357806125aa61261e92896134cc565b518c6125b6838d6134cc565b51918060005282602092600084526040600020816000528452604060002054906125e28383101561359e565b8360005260008552604060002090600052845203604060002055600052600081526040600020908b6000525261070a60406000209182546135fd565b612593565b5090919293968998878a604051604081527f4a39dc06d4c0dbc64b70af90fd698a233a518aa5d07e595d983b8c0526c8f7fb612662604083018c613204565b91808303602082015280612677339489613204565b0390a43b61268157005b604051978896879663bc197c8160e01b9b8c89523360048a01526024890152870160a0905260a487016126b391613204565b908487830301908701526126c691613204565b9184830301908401526126d891612f8b565b03815a602094600091f16000918161276c575b5061274457505060016126fc613673565b6308c379a01461270d575b61055957005b612715613691565b806127205750612707565b60405162461bcd60e51b815260206004820152908190610572906024830190612f8b565b6001600160e01b031916146104db5760405162461bcd60e51b8152806105726004820161362a565b61278591925060203d81116105fd576105ee8183613050565b90836126eb565b96949398929590979160005b8551811015612842576127ab81876134cc565b516127b682896134cc565b519080600052602060048152604060002054918383106127ef576127ea9493929160049160005252036040600020556134b0565b612798565b508b9067616c537570706c7960c01b8f7f455243313135353a206275726e20616d6f756e74206578636565647320746f748e6040519462461bcd60e51b8652600486015260286024860152840152820152fd5b50919790959298939496612590565b98959996949392919060005b8b5181101561288557808c6106f182612879612880958f6134cc565b51926134cc565b61285d565b5090919293949699959861258b565b60405162461bcd60e51b815260206004820152602860248201527f455243313135353a2069647320616e6420616d6f756e7473206c656e6774682081860152670dad2e6dac2e8c6d60c31b818701528790fd5b5089600052600160205260406000203360005260205261256c60ff604060002054169050612563565b346102b5576020806003193601126102b5576004356001600160401b0381116102b55761294190369060040161308c565b9061294a6139c1565b5061295c6129573361377c565b613b60565b61296582613990565b612a50578060405181810190828252612993816129856040820188612f8b565b03601f198101835282613050565b519020926040516129a381612fe4565b338152600083820152604051906129b982612fe4565b60008252600084830152604051956129d087612fff565b600087528487015282604087015260608601526080850152600060a0850152612a0b600c549283928160405193828580945193849201612f68565b8101600981520301902055600160401b811015611dfc5782612a36826001612a3c9401600c55613280565b906140d4565b6109836040519282849384528301906130e0565b6064906040519062461bcd60e51b825260048201526016602482015275426174746c6520616c7265616479206578697374732160501b6044820152fd5b346102b55760203660031901126102b5576001600160a01b03612aae612f3c565b1660005260086020526020604060002054604051908152f35b346102b55760203660031901126102b5576004356001600160401b0381116102b557612afd611a5d61098392369060040161308c565b6040519182916020835260208301906130e0565b346102b55760203660031901126102b5576004356001600160401b0381116102b557610a2f612b46602092369060040161308c565b613990565b346102b55760203660031901126102b557610983612b6f612b6a612f3c565b613911565b604051918291602083526020830190612fb0565b346102b5576020806003193601126102b5576040519060008260025491612ba9836132b5565b92838352600190858282169182600014612c14575050600114612bd4575b5061096f92500383613050565b849150600260005281600020906000915b858310612bfc57505061096f935082010185612bc7565b80548389018501528794508693909201918101612be5565b60ff19168582015261096f95151560051b8501019250879150612bc79050565b346102b55760003660031901126102b5576020604051600a8152f35b346102b55760203660031901126102b5576020610a2f612c6e612f3c565b61377c565b346102b55760003660031901126102b557602060405160038152f35b346102b5576020806003193601126102b5576001600160401b036004358181116102b557612cc190369060040161308c565b91612cca6133d3565b8251918211611dfc57612cde6002546132b5565b601f8111612d85575b5080601f8311600114612d2157508192600092612d16575b50508160011b916000199060031b1c191617600255005b015190508280612cff565b90601f19831693600260005282600020926000905b868210612d6d5750508360019510612d54575b505050811b01600255005b015160001960f88460031b161c19169055828080612d49565b80600185968294968601518155019501930190612d36565b612db090600260005282600020601f850160051c810191848610611df257601f0160051c0190613b49565b83612ce7565b346102b55760203660031901126102b55760043563ffffffff60e01b81168091036102b557602090636cdb3d1360e11b8114908115612e13575b8115612e02575b506040519015158152f35b6301ffc9a760e01b14905082612df7565b6303a24d0760e21b81149150612df0565b346102b55760003660031901126102b557600b54612e418161318f565b90612e4f6040519283613050565b808252600b6000908152602091828401917f0175b7a638427703f0dbe7bb9bbf987a2551717b34e79f33b5b1008d1fa01db9835b838310612eea5750505050604051918083019381845251809452604083019360408160051b85010192916000955b828710612ebe5785850386f35b909192938280612eda600193603f198a82030186528851612fb0565b9601920196019592919092612eb1565b600486600192612efc859a999a6138d8565b815201920192019190959495612e83565b346102b55760403660031901126102b5576020612f34612f2b612f3c565b6024359061342b565b604051908152f35b600435906001600160a01b03821682036102b557565b602435906001600160a01b03821682036102b557565b60005b838110612f7b5750506000910152565b8181015183820152602001612f6b565b90602091612fa481518092818552858086019101612f68565b601f01601f1916010190565b90606080612fc78451608085526080850190612f8b565b936020810151602085015260408101516040850152015191015290565b604081019081106001600160401b03821117611dfc57604052565b60c081019081106001600160401b03821117611dfc57604052565b60a081019081106001600160401b03821117611dfc57604052565b608081019081106001600160401b03821117611dfc57604052565b90601f801991011681019081106001600160401b03821117611dfc57604052565b6001600160401b038111611dfc57601f01601f191660200190565b81601f820112156102b5578035906130a382613071565b926130b16040519485613050565b828452602083830101116102b557816000926020809301838601378301015290565b9060038210156119bc5752565b906130ec8183516130d3565b60209182810151838301526131106040820151610100806040860152840190612f8b565b926060820151606084016000905b83600283106131715750505050608082015190600060a085015b60028210613159575050505060e09060a0600180821b039101511691015290565b828060019260ff875116815201940191019092613138565b83516001600160a01b0316825292830192600192909201910161311e565b6001600160401b038111611dfc5760051b60200190565b81601f820112156102b5578035916131bd8361318f565b926131cb6040519485613050565b808452602092838086019260051b8201019283116102b5578301905b8282106131f5575050505090565b813581529083019083016131e7565b90815180825260208080930193019160005b828110613224575050505090565b835185529381019392810192600101613216565b9060018060a01b038251168152608080613261602085015160a0602086015260a0850190612f8b565b9360408101516040850152606081015160608501520151151591015290565b600c5481101561329f57600c6000526007602060002091020190600090565b634e487b7160e01b600052603260045260246000fd5b90600182811c921680156132e5575b60208310146132cf57565b634e487b7160e01b600052602260045260246000fd5b91607f16916132c4565b9060405191826000825492613303846132b5565b908184526001948581169081600014613372575060011461332f575b505061332d92500383613050565b565b9093915060005260209081600020936000915b81831061335a57505061332d9350820101388061331f565b85548884018501529485019487945091830191613342565b91505061332d94506020925060ff191682840152151560051b820101388061331f565b600b5481101561329f57600b60005260206000209060021b0190600090565b600a5481101561329f57600a6000526005602060002091020190600090565b6003546001600160a01b031633036133e757565b606460405162461bcd60e51b815260206004820152602060248201527f4f776e61626c653a2063616c6c6572206973206e6f7420746865206f776e65726044820152fd5b6001600160a01b031690811561345857600052600060205260406000209060005260205260406000205490565b60405162461bcd60e51b815260206004820152602a60248201527f455243313135353a2061646472657373207a65726f206973206e6f742061207660448201526930b634b21037bbb732b960b11b6064820152608490fd5b6000198114611ed15760010190565b80511561329f5760200190565b805182101561329f5760209160051b010190565b156134e757565b60405162461bcd60e51b815260206004820152602f60248201527f455243313135353a2063616c6c6572206973206e6f7420746f6b656e206f776e60448201526e195c881b9bdc88185c1c1c9bdd9959608a1b6064820152608490fd5b1561354b57565b60405162461bcd60e51b815260206004820152602560248201527f455243313135353a207472616e7366657220746f20746865207a65726f206164604482015264647265737360d81b6064820152608490fd5b156135a557565b60405162461bcd60e51b815260206004820152602a60248201527f455243313135353a20696e73756666696369656e742062616c616e636520666f60448201526939103a3930b739b332b960b11b6064820152608490fd5b91908201809211611ed157565b908160209103126102b557516001600160e01b0319811681036102b55790565b60809060208152602860208201527f455243313135353a204552433131353552656365697665722072656a656374656040820152676420746f6b656e7360c01b60608201520190565b60009060033d1161368057565b905060046000803e60005160e01c90565b600060443d106136ee57604051600319913d83016004833e81516001600160401b03918282113d6024840111176136f1578184019485519384116136f9573d850101602084870101116136f157506136ee92910160200190613050565b90565b949350505050565b50949350505050565b60809060208152603460208201527f455243313135353a207472616e7366657220746f206e6f6e20455243313135356040820152732932b1b2b4bb32b91034b6b83632b6b2b73a32b960611b60608201520190565b6040519061376482612fe4565b6001825260203681840137613778826134bf565b5290565b6001600160a01b031660009081526007602052604090205461379d57600090565b600190565b906040516137af8161301a565b608060ff6004839560018060a01b0381541685526137cf600182016132ef565b602086015260028101546040860152600381015460608601520154161515910152565b60806040516138008161301a565b60009181838093526060602082015282604082015282606082015201526138268261377c565b15613855576001600160a01b039091168152600760205260409020546136ee9061384f906133b4565b506137a2565b60405162461bcd60e51b8152602060048201526015602482015274506c6179657220646f65736e27742065786973742160581b6044820152606490fd5b6001600160a01b031660009081526008602052604090205461379d57600090565b604051906138c082613035565b60006060838181528260208201528260408201520152565b906040516138e581613035565b6060600382946138f4816132ef565b845260018101546020850152600281015460408501520154910152565b6139196138b3565b5061392381613892565b1561394f5760018060a01b031660005260086020526136ee613949604060002054613395565b506138d8565b60405162461bcd60e51b815260206004820152601960248201527847616d6520746f6b656e20646f65736e27742065786973742160381b6044820152606490fd5b60206139a9918160405193828580945193849201612f68565b81016009815203019020541560001461379d57600090565b604090600060a083516139d381612fff565b809483825283602083015260608183015280516139ef81612fe4565b813682376060830152805190613a0482612fe4565b36823760808201520152565b90604051613a1d81612fff565b809260ff81541660038110156119bc5782526001808201549060209182850152600290613a4b8285016132ef565b60408601526040519182600386016000915b838310613ab45750505050509081613a7760a09493612fe4565b60608501526040519060ff6005840154818116845260081c1690820152613a9d81612fe4565b6080840152600601546000196001831b0116910152565b81546001600160a01b0316815291840191908401908601613a5d565b613ad86139c1565b50613ae281613990565b15613b0c57613b06610c1760206136ee938160405193828580945193849201612f68565b50613a10565b60405162461bcd60e51b8152602060048201526015602482015274426174746c6520646f65736e27742065786973742160581b6044820152606490fd5b818110613b54575050565b60008155600101613b49565b15613b6757565b60405162461bcd60e51b815260206004820152601c60248201527f506c6561736520526567697374657220506c61796572204669727374000000006044820152606490fd5b6080613bb7336137f2565b015161403e57613bc96129573361377c565b613bd16138b3565b50613bdb33614088565b80600a0390600a8211611ed1576040908151602090818101904282523360601b858201526034815260608101966001600160401b0392828910848a1117611dfc5760ff60646006928b8a528551902006160660ff8116918215614028575b60ff9250613c468a613035565b89521696608082019188835260c060a08201918783520190888252600b5493600160401b851015611dfc57600195868601600b55613c8386613395565b959095611e1257518051918211611dfc57613c9e86546132b5565b601f8111613ff8575b508890601f8311600114613f90576003959493929160009183613f85575b505060001982871b1c191690881b1785555b518685015551600284015551910155336000526008835284600020558351613cfe81612fe4565b600381526203078360ec1b838201523315613f3757613d1c87613757565b82865191613d2983612fe4565b81835285368185013781613d3c846134bf565b526000825b613ef3575b5050505086600052600083528460002033600052835284600020805490838201809211611ed1575584518781528284820152600033917fc3d58168c5ae7397731d063d5bbf3d657854427343f4c083240f7aacaa2d0f62883392a4333b613deb575b5050613db56006546134b0565b60065582519485528401528201527fca8ab07e9ed17d119729fc652dd24df9d8430ca862dda4631925b5b4b99da36260603392a2565b8451838180613e2963f23a6e6160e01b95868352336004840152600060248401528c604484015287606484015260a0608484015260a4830190612f8b565b03816000335af160009181613ed4575b50613eab575050613e48613673565b6308c379a014613e77575b613e5f575b3880613da8565b825162461bcd60e51b81528061057260048201613702565b613e7f613691565b80613e8a5750613e53565b82610572865192839262461bcd60e51b845260048401526024830190612f8b565b6001600160e01b031916149050613e5857825162461bcd60e51b8152806105726004820161362a565b613eec919250853d87116105fd576105ee8183613050565b9038613e39565b8151811015613f325780613f0a613f2c92866134cc565b51613f1582856134cc565b516000526004895261070a8b6000209182546135fd565b82613d41565b613d46565b845162461bcd60e51b815260048101849052602160248201527f455243313135353a206d696e7420746f20746865207a65726f206164647265736044820152607360f81b6064820152608490fd5b015190503880613cc5565b949392918891601f19821690886000528b6000209160005b8d828210613fe2575050978360039910613fca575b505050811b018555613cd7565b015160001983891b60f8161c19169055388080613fbd565b838b015185558d96909401939283019201613fa8565b61402290876000528a600020601f850160051c8101918c8610611df257601f0160051c0190613b49565b38613ca7565b905060ff8214611ed157600160ff920190613c39565b60405162461bcd60e51b8152602060048201526015602482015274506c6179657220697320696e206120626174746c6560581b6044820152606490fd5b91908203918211611ed157565b600a9060405160208101914483524260408301526bffffffffffffffffffffffff199060601b166060820152605481526140c181613035565b5190200680156140ce5790565b50600590565b929190611e12578051926003808510156119bc5760ff1982541660ff80961617825560209081840151906001918285015560029081850160408701518051906001600160401b038211611dfc57819061412d84546132b5565b601f8111614274575b508790601f831160011461421257600092614207575b505060001982851b1c191690851b1790555b606086015160005b8381106141eb5750505090608085015191600093845b8281106141bb575050505050600582015560a09091015160069190910180546001600160a01b0319166001600160a01b03929092169190911790559050565b909192826141df8697848d85995116919060031b60ff811b9283911b169119161790565b9601949392910161417c565b81516001600160a01b0316878201840155908501908401614166565b01519050388061414c565b90879350601f1983169185600052896000209260005b8b82821061425e5750508411614246575b505050811b01905561415e565b015160001983871b60f8161c19169055388080614239565b8385015186558b97909501949384019301614228565b61429e908560005289600020601f850160051c8101918b8610611df257601f0160051c0190613b49565b38614136565b906142ae82613990565b156142d257612a36610c17602061332d948160405193828580945193849201612f68565b60405162461bcd60e51b815260206004820152601460248201527310985d1d1b1948191bd95cdb89dd08195e1a5cdd60621b6044820152606490fd5b6143166139c1565b50815160038110156119bc5760021461441557600282527fef50ed5920f81c37468aa9114164197f642d73e9ddb502023574253301e6e04661440f60018060a01b03809316928360a0860152600a60026143f760408801936143798986516142a4565b606089019080825151166000526007602052602060406000205492510151166000526040600020549084846143d460046143b2856133b4565b50019360ff1994858154169055601960036143cc836133b4565b5001556133b4565b50015560046143e2836133b4565b5001908154169055601960036143cc836133b4565b50015551604051918291602083526020830190612f8b565b0390a290565b60405162461bcd60e51b815260206004820152601460248201527310985d1d1b1948185b1c9958591e48195b99195960621b6044820152606490fd5b80156145165780816000925b614502575061446b82613071565b916144796040519384613050565b80835281601f1961448983613071565b01916020923684870137905b61449f5750505090565b60001990808201908111611ed1578093600a808204809404811184151516611ed1576144d160ff92839286029061407b565b16603001908111611ed157855182101561329f5760f81b6001600160f81b03191660001a9085018301539182614495565b9161450e600a916134b0565b92048061445d565b5060405161452381612fe4565b60018152600360fc1b60208201529056fea2646970667358221220eadd48e6bfb8b2dad3935c6209c97545d38e2934b849b4dacf2663b9daf62b4b64736f6c63430008100033405787fa12a823e0f2b7631cc41b3ba8828b3321ca811111fa75cd3aa3bb5ace",
  "linkReferences": {},
  "deployedLinkReferences": {}
}